:100000000C94EA000C9412010C9412010C9412014D
:100010000C9412010C9412010C9412010C94120114
:100020000C9412010C9412010C94950A0C9427095B
:100030000C9412010C9412010C9412010C941201F4
:100040000C9412010C9412010C9412010C941201E4
:100050000C9412010C9412010C9412010C94FE03E6
:100060000C9412010C9412010C9412010C941201C4
:100070000C9412010C9412010C9412010C941201B4
:100080000C9412010C9412010C9412010C941201A4
:100090000C9412010C9412010C9412010C94120194
:1000A0000C9412010C9412010C94120118051B05FA
:1000B0000A050E0514053C053C053C051F052305F6
:1000C00027052D0531053C05370500000002000914
:1000D0000F0000030401000C0000000000000000FD
:1000E00000000000000000000408020110408040F1
:1000F000102040804080080204018040201002014E
:10010000108010204040040404040403040502028B
:1001100002020403020202020606060606060404A0
:1001200002020204000000002300260029002C0027
:100130002F0000000000250028002B002E003100B9
:1001400000000000240027002A002D003000080BCA
:100150000002020201000904000001020200000581
:1001600024001001052401010104240206052406CF
:1001700000010705810310004009040100020A0084
:10018000000007050202400000070583024000004E
:1001900012010002EF0201404123378000010102F9
:1001A00003011201000200000040412337800001DA
:1001B0000102030141726475696E6F204C4C43006B
:1001C00041726475696E6F204D6963726F0004033C
:1001D0000904B60611241FBECFEFDAE0DEBFCDBFA3
:1001E00011E0A0E0B1E0E4E7F8E102C005900D9273
:1001F000AC33B107D9F722E0ACE3B1E001C01D9206
:10020000A033B207E1F711E0C4EDD1E004C02297BA
:10021000FE010E94340CC23DD107C9F70E942E0B8B
:100220000C94380C0C940000CF93DF93EB011092E8
:10023000710061E085E00E943D0560E085E00E947C
:1002400076059E01442737FD4095542F60E47FE1F9
:1002500080E090E00E94130C82E08093900081E1A6
:10026000809391003093970020939600C90163E03A
:1002700070E00E94DD0B7093990060939800DF910D
:10028000CF9108958F929F92AF92BF92CF92DF92BB
:10029000EF92FF926A017B014530510561057105BE
:1002A00000F10E9454044B015C0184E0C81AD1089B
:1002B000E108F108C80CD91CEA1CFB1CC814D904BD
:1002C000EA04FB0438F40E94540486169706A80634
:1002D000B906C8F30E9454046C157D058E059F0570
:1002E000C8F3FF90EF90DF90CF90BF90AF909F90BA
:1002F0008F900895209190002068209390006115C0
:10030000710529F0AB0160E070E00C9442010895A2
:10031000209190002F77209390006115710529F0AE
:10032000AB0160E070E00C9442010895CF92DF923F
:10033000EF92FF920F931F93CF93DF937C018B017A
:100340006A01B9010E941401E80100E010E00C15F7
:100350001D0571F068817981C70100FF03C00E940B
:10036000880102C00E947A010F5F1F4F2296EFCFD3
:10037000809190008F7780939000DF91CF911F91B3
:100380000F91FF90EF90DF90CF900895962728E08F
:1003900030E0AC01440F551F97FF06C0CA0161E26F
:1003A000862760E1962701C0CA012150310989F7EB
:1003B00008950F931F93CF93DF938B01EC01080FE8
:1003C000191F80E090E0C017D10721F069910E94C9
:1003D000C601F9CFDF91CF911F910F9108954F92F0
:1003E0005F926F927F928F929F92AF92BF92CF92C5
:1003F000DF92EF92FF920F931F93CF93DF93CDB7CE
:10040000DEB72A970FB6F894DEBF0FBECDBF4B0103
:100410005C0188E7E8E4F1E0DF011D928A95E9F7E5
:1004200010924701C501B40120E432E44FE050E0EE
:100430000E94F10BAAE0CA2ED12CE12CF12CCA01AA
:10044000B901A70196010E94F10B00EF060FC5014B
:10045000B40120EA36E841E050E00E94F10BCA0105
:10046000B901A70196010E94F10B762EC501B401D6
:1004700020E137E240E050E00E94F10BCA01B901EF
:10048000A70196010E94F10B162FB0E17B9E100D83
:100490001124C501B40128EE33E040E050E00E9491
:1004A000F10BCA01B901A70196010E94F10B662E5A
:1004B000C501B40124E630E040E050E00E94F10BB9
:1004C000CA01B901A70196010E94F10B762EE0E165
:1004D0006E9E700C1124C501B401A70196010E9403
:1004E000F10BB62ECA01B901A70196010E94F10BCA
:1004F000FB2CF0E16F9FF00C1124FF8278861987A6
:100500000A8764E070E0CE0107960E94D901009549
:10051000098390959A8310951B8370947C82F09444
:10052000FD8280958E839E012C5F3F4FAE014F5F11
:100530005F4F80E090E0DC01880F991FAA1FBB1F6E
:100540000196A11DB11DBA2FA92F982F8827F90157
:1005500062919F01860F911DA11DB11D880F991FEA
:10056000AA1FBB1F2417350739F7FE0137962D5FE9
:100570003F4FC12CD12C7601CC0CDD1CEE1CFF1C96
:100580004FEFC41AD40AE40AF40AFE2CED2CDC2C3A
:10059000CC244291C40ED11CE11CF11CCC0CDD1CFE
:1005A000EE1CFF1CE217F30739F70091470110E03A
:1005B000B12CAA24A3940097A105B10529F1412FDC
:1005C00050E060E070E02C013D01E1E04E22552456
:1005D00066247724441655066606770679F0E02FE0
:1005E000F0E0EE0FFF1FE85BFE4F2B2D30E0318374
:1005F00020831A2511700F5FB12CDDCFB394B6950F
:10060000A79597958795D7CF0093470165E171E04E
:1006100089EC91E00E94ED0620914701C114D104BC
:10062000E104F10431F1812F90E0A0E0B0E0B701E6
:10063000A6014170552766277727481759076A078B
:100640007B0789F0E22FF0E0EE0FFF1FE85BFE4F23
:100650008B2D90E0918380832F5F81E0111180E0EA
:10066000182FB12CDBCFB394F694E794D794C794AA
:10067000D5CF2093470130E0E8E4F1E080E090E05E
:10068000A8E1821793075CF460817181A69FA001A5
:10069000A79F500D1124419351930196F2CF2A96B2
:1006A0000FB6F894DEBF0FBECDBFDF91CF911F9183
:1006B0000F91FF90EF90DF90CF90BF90AF909F9001
:1006C0008F907F906F905F904F90089560E08EE0E4
:1006D0000E943D0561E08EE00E94760561E08FE0BA
:1006E0000E943D0560E08FE00E9476058EE00E944A
:1006F000AC05892B89F088EC90E0A0E0B0E0809315
:10070000400190934101A0934201B09343016CE3F7
:1007100075EF82E190E010C088EE93E0A0E0B0E0D9
:100720008093400190934101A0934201B093430113
:1007300062E772ED87E890E00E94EF0161E081E1FD
:100740000C943D05CF92DF92EF92FF920F931F938F
:1007500020910001309101014091470150E068E48F
:1007600071E086E491E00E94960180ED97E00E949E
:100770009F040E94480400913C0110913D0120918A
:100780003E0130913F016B017C01C01AD10AE20A9F
:10079000F30A0091400110914101209142013091F2
:1007A0004301C016D106E206F306F0F060933C0167
:1007B00070933D0180933E0190933F0180914401ED
:1007C00090914501892B39F481E090E090934501A7
:1007D0008093440104C0109245011092440160913D
:1007E000440181E10E94760588E097E01F910F9116
:1007F000FF90EF90DF90CF900C949F041F920F9288
:100800000FB60F9211242F933F938F939F93AF9323
:10081000BF938091C1019091C201A091C301B09199
:10082000C4013091C00123E0230F2D3720F401963D
:10083000A11DB11D05C026E8230F0296A11DB11D03
:100840002093C0018093C1019093C201A093C30182
:10085000B093C4018091C5019091C601A091C701D8
:10086000B091C8010196A11DB11D8093C50190935F
:10087000C601A093C701B093C801BF91AF919F91EA
:100880008F913F912F910F900FBE0F901F90189551
:100890002FB7F8946091C1017091C2018091C3019A
:1008A0009091C4012FBF08953FB7F8948091C5017E
:1008B0009091C601A091C701B091C80126B5A89B2F
:1008C00005C02F3F19F00196A11DB11D3FBF66273E
:1008D000782F892F9A2F620F711D811D911D42E083
:1008E000660F771F881F991F4A95D1F70895CF92F9
:1008F000DF92EF92FF92CF93DF936B017C010E9416
:100900005404EB01C114D104E104F10489F00E9404
:10091000410B0E9454046C1B7D0B683E734090F3A6
:1009200081E0C81AD108E108F108C851DC4FEACFCC
:10093000DF91CF91FF90EF90DF90CF9008958230BC
:10094000910538F0880F991F880F991F0597019717
:10095000F1F70895789484B5826084BD84B5816090
:1009600084BD85B5826085BD85B5816085BDEEE6B7
:10097000F0E0808181608083E1E8F0E01082808196
:1009800082608083808181608083E0E8F0E0808104
:1009900081608083E1E9F0E08081826080838081F2
:1009A00081608083E0E9F0E0808181608083E1EC18
:1009B000F0E0808184608083808182608083808198
:1009C00081608083E3ECF0E0808181608083E0ECF3
:1009D000F0E0808182608083E2ECF0E080818160E1
:1009E0008083EAE7F0E08081846080838081826098
:1009F0008083808181608083808180688083089586
:100A000090E0FC013197EF30F105B0F5EA5AFF4F65
:100A10000C94320C809180008F7703C0809180000D
:100A20008F7D80938000089580918000877FF9CF2B
:100A300084B58F7702C084B58F7D84BD0895809181
:100A400090008F7707C0809190008F7D03C08091C8
:100A50009000877F8093900008958091C0008F77E9
:100A600003C08091C0008F7D8093C0000895809165
:100A7000C200877F8093C2000895CF93DF9390E0F8
:100A8000FC01E851FF4F2491FC01EA5FFE4F849185
:100A9000882349F190E0880F991FFC01E05CFE4F2C
:100AA000A591B4918E5C9E4FFC01C591D4919FB7E6
:100AB000611108C0F8948C91209582238C938881D1
:100AC00082230AC0623051F4F8948C91322F309511
:100AD00083238C938881822B888304C0F8948C9123
:100AE000822B8C939FBFDF91CF9108950F931F931B
:100AF000CF93DF931F92CDB7DEB7282F30E0F901F7
:100B0000E653FF4F8491F901E851FF4F1491F90129
:100B1000EA5FFE4F04910023C9F0882321F0698326
:100B20000E9400056981E02FF0E0EE0FFF1FEE5CF0
:100B3000FE4FA591B4919FB7F8948C91611103C0B9
:100B40001095812301C0812B8C939FBF0F90DF9163
:100B5000CF911F910F910895CF93DF93282F30E00D
:100B6000F901E653FF4F8491F901E851FF4FD49109
:100B7000F901EA5FFE4FC491CC2391F081110E94EC
:100B80000005EC2FF0E0EE0FFF1FEC5DFE4FA5918E
:100B9000B4912C912D2381E090E021F480E002C0FB
:100BA00080E090E0DF91CF910895CF93DF931F9283
:100BB000CDB7DEB76983DC01ED91FC910280F38152
:100BC000E02D41E050E0BE016F5F7F4F09950F902F
:100BD000DF91CF910895CF93DF93EC018C859D85B4
:100BE00097FF05C082E00E9410089D878C878C8546
:100BF0009D85DF91CF91089583E00C948B0AFC01D1
:100C00008485958597FD06C082E00E94B80790E034
:100C10000196089582E00E94B80790E00895FC01D3
:100C20008485958597FD05C02FEF3FEF3587248795
:100C3000089582E00C941008CF93DF93EC0180912B
:100C40000D01882331F083E00E944108181619062F
:100C500034F081E090E09B838A8380E090E0DF9134
:100C6000CF910895FC0120812E5F208342E450E063
:100C70006EE471E080E80C94DC08FC012181808145
:100C8000813A59F4213209F05CC047E050E066E057
:100C900071E080E00E94DC0867C0813209F051C039
:100CA000233289F4838190E0982F88273281832B27
:100CB000A0E0B0E08093020190930301A0930401AF
:100CC000B09305010FC0203239F467E070E086E090
:100CD00091E00E940D090AC0223221F482818093A2
:100CE0000D0104C02D7F203209F03EC08091060125
:100CF00090910701A0910801B0910901803B9440B7
:100D0000A105B10501F580910D0180FD1CC0809108
:100D10000008909101089093FF0A8093FE0A87E7EC
:100D200097E790930108809300082BE088E190E01A
:100D30000FB6F894A895809360000FBE20936000D2
:100D400013C080E0089588E10FB6F89480936000A6
:100D5000109260000FBEA8958091FE0A9091FF0A44
:100D6000909301088093000881E008951092CC01CF
:100D70001092CB0188EE93E0A0E0B0E08093CD012B
:100D80009093CE01A093CF01B093D0018FE191E079
:100D90009093CA018093C9018FEF9FEF9093D60182
:100DA0008093D50108956115710581F0DB010D90E7
:100DB0000020E9F7AD0141505109461B570BDC01FA
:100DC000ED91FC910280F381E02D099480E090E0A8
:100DD00008956BE271E00C94D3060F931F93CF93A9
:100DE000DF93EC010E94D3068C01CE010E94E9063C
:100DF000800F911FDF91CF911F910F910895615046
:100E000030F02091F100FC0120830196F8CF289A60
:100E100084E680932202089540911D0250911E02A3
:100E200020911B0230911C0242175307B4F4909199
:100E3000E8009570E1F39091E80092FD19C080936D
:100E4000F10080911D0290911E0201968F739927E7
:100E5000892B19F48EEF8093E80080911D02909108
:100E60001E02019690931E0280931D0281E0089558
:100E700080E00895CF92DF92EF92FF920F931F933D
:100E8000CF93DF931F92CDB7DEB7082F162FF42E26
:100E9000862F880F8E5F99830E940C0783E00E9443
:100EA0000C07E02EC02E9981D92E8C2D8E1981171A
:100EB00098F4F601F7FE02C0849101C080810E947F
:100EC0000C07082F80E00E940C078023FFEFCF1A49
:100ED000DF0A8111EACF01C081E00F90DF91CF914D
:100EE0001F910F91FF90EF90DF90CF900895809128
:100EF000D70081608093D70080EA8093D80089B5BD
:100F0000806189BD89B5826089BD09B400FEFDCFCD
:100F100061E070E080E090E00E9477048091D8006A
:100F20008F7C80618093D8008091E000807F8093E7
:100F3000E0000895CF93DF931F92CDB7DEB71982FB
:100F4000CE0101960E9432060E94C90BBE016F5F5E
:100F50007F4F0E94420B89810F90DF91CF910895BE
:100F60002FB7FC012083F89467706093E90008951F
:100F7000CF93DF931F92CDB7DEB7682FCE010196D6
:100F80000E94B0078091F20099819FBF0F90DF917E
:100F9000CF910895FF920F931F93CF93DF9300D0CB
:100FA000CDB7DEB7F62E8A0190912102992311F078
:100FB00057FF03C08FEF9FEF2BC0682FCE01019624
:100FC0007A830E94B0078091F20090E0A8017A81B4
:100FD000801791070CF4AC01EF2DF72FF40E84E687
:100FE000FE1639F0289A809322029091F100919395
:100FF000F7CF4115510521F08091F200882321F0AF
:1010000089818FBFCA0104C08BE68093E800F8CFC6
:101010000F900F90DF91CF911F910F91FF90089546
:10102000CF93DF931F92CDB7DEB741E050E0BE0112
:101030006F5F7F4F0E94CA07019719F4898190E082
:1010400002C08FEF9FEF0F90DF91CF910895CF9364
:10105000DF931F92CDB7DEB7682FCE0101960E94B5
:10106000B0079091E800892F807295FF04C090919D
:10107000F20080E4891B99819FBF0F90DF91CF918F
:1010800008956F927F928F929F92AF92BF92CF926C
:10109000DF92EF92FF920F931F93CF93DF931F92F4
:1010A000CDB7DEB7782E7B01C42EB52E80912102FC
:1010B000882369F0042F152F8AEFD82E872D807290
:1010C000982E9AE3A92E872D8074882E11C08FEF59
:1010D0009FEF57C0872D0E942708682E81110CC0F2
:1010E000DA94A9F361E070E080E090E00E94770478
:1010F0000115110579F73BC0282F30E002171307BF
:101100000CF4602E672DCE0101960E94B0078091ED
:10111000E80085FF29C0262D30E0021B130B992023
:1011200039F06A948FEF6816B1F01092F100F9CFA0
:10113000F701862D77FE07C0815058F09491909367
:10114000F1003196F9CF815020F091919093F10008
:10115000FACFE20EF31E8091E80085FF0FC0011563
:10116000110511F481100AC089818FBFC1CF5D9A2A
:1011700084E6809323028C2D9B2D03C0A092E8006F
:10118000F3CF0F90DF91CF911F910F91FF90EF90D0
:10119000DF90CF90BF90AF909F908F907F906F9097
:1011A00008951092E90010921E0210921D02909371
:1011B0001C0280931B020895CF92DF92FF920F933F
:1011C0001F93CF93DF9300D0CDB7DEB7F82E8A01FF
:1011D0006B0101151105B1F0F601F7FE02C0849113
:1011E00001C0808149835A830E940C070150110974
:1011F000FFEFCF1ADF0A49815A818111EACF8FEFC1
:101200009FEF01C0CA010F900F90DF91CF911F9106
:101210000F91FF90DF90CF9008951F93CF93DF93AE
:101220001F92CDB7DEB7162F2091E80022FFFCCF2A
:10123000612F79830E94FF068BEF8093E800812F56
:101240007981972F0F90DF91CF911F9108951F9271
:101250000F920FB60F921124DF92EF92FF920F932D
:101260001F932F933F934F935F936F937F938F932E
:101270009F93AF93BF93EF93FF93CF93DF93CDB73C
:10128000DEB76C97DEBFCDBF1092E9008091E80019
:1012900083FF23C168E0CE0145960E94FF0682EFDE
:1012A0008093E8003D8937FF05C08091E80080FF0A
:1012B000FCCF03C08EEF8093E800832F807609F087
:1012C000F0C02E894F89D88C21110CC0303829F4F8
:1012D000809120028093F10002C01092F1001092E0
:1012E000F100F4C0842F90E09D29213049F43111A0
:1012F000EDC0019709F0EAC0809120028D7F0AC0FD
:10130000233059F43111E2C0019709F0DFC0809118
:101310002002826080932002D9C0253041F4809160
:10132000E80080FFFCCF40684093E300CFC0263048
:1013300009F08DC0EB8CFC8C22E0D2122CC080E036
:1013400090E00E94D1080E949A0799E08E010F5FF9
:101350001F4FF801292F11922A95E9F79983DA8214
:1013600091E09E8390EA98879AEF998720911D02D9
:1013700030911E02275F3F4F3C832B838D83C70133
:101380000E94D10849E050E0B80180E00E94DC08EA
:101390000E949A079BC0C7010E94D1080E94C90BF6
:1013A000BE016B5E7F4F0E946B0B009719F00CF033
:1013B0008DC090C081E0D8120EC08B8D9C8D089797
:1013C00019F481E080931A0280911A0281112FC0D2
:1013D00062EA71E031C0E3E0DE127CC08F898823CD
:1013E00049F1823029F440E86DE080EC91E01CC0C6
:1013F000813029F440E86BE084EB91E015C0833044
:1014000009F068C00E94C90B8E010F5F1F4FB80121
:101410000E948A0BF80101900020E9F73197E01B48
:10142000F10B40E06E2FC8010E943A074DC060E901
:1014300071E002C06EEC71E06115710509F44AC0FB
:10144000FB01449150E080E80E94DC083FC0273057
:1014500009F440C0283021F481E08093F10036C0C7
:101460002930A1F53370B1F5EFE0F1E081E021E042
:1014700036E39081992361F08093E9002093EB009B
:1014800091919093EC003093ED008F5F873089F756
:101490008EE78093EA001092EA008F898093210200
:1014A00015C08B8D9C8D0E94D108898D811105C03E
:1014B000CE0145960E943D0607C00E94C90BBE01A1
:1014C0006B5E7F4F0E94A90B882321F08EEF8093E3
:1014D000E80003C081E28093EB006C960FB6F894AD
:1014E000DEBF0FBECDBFDF91CF91FF91EF91BF91D6
:1014F000AF919F918F917F916F915F914F913F91AC
:101500002F911F910F91FF90EF90DF900F900FBEE2
:101510000F901F9018958093E9008091F200882326
:1015200019F08AE38093E80008951F920F920FB696
:101530000F9211242F933F934F935F936F937F9359
:101540008F939F93AF93BF93CF93EF93FF93C091EC
:10155000E1008091E100837F8093E1008093E100CE
:10156000C3FF0FC01092E90081E08093EB0010925E
:10157000EC0082E38093ED001092210288E08093DA
:10158000F000C2FF19C083E00E948B0A8091230201
:10159000882339F08091230281508093230288238D
:1015A00089F180912202882339F0809122028150B2
:1015B00080932202882341F1C4FF10C08091E20091
:1015C0008E7E81608093E2008091E1008F7E809327
:1015D000E10080911F028E7E806111C0C0FF16C0A5
:1015E0008091E2008E7E80618093E2008091E10034
:1015F0008E7E8093E10080911F028E7E81608093B9
:101600001F0204C05D98CDCF2898D6CFFF91EF91EF
:10161000CF91BF91AF919F918F917F916F915F918A
:101620004F913F912F910F900FBE0F901F901895E3
:10163000109221021092200210921F020E9477073E
:10164000E1EEF0E080818E7E80838DE08093E20089
:10165000559A209A5D982898089508950E94AA04A2
:101660000E942D0B89E192E00E94180B0E946603F4
:10167000C0E0D0E00E94A2032097E1F30E940000A6
:10168000F9CF0895EF92FF920F931F93CF93DF93BB
:101690007B01FC01C281D38100E010E0209781F042
:1016A000E881F9810280F381E02DB701CE0109952F
:1016B00097FD08C0080F191F0884D985C02DEECFEB
:1016C000C80102C08FEF9FEFDF91CF911F910F9163
:1016D000FF90EF9008950F931F93CF93DF938B01AB
:1016E000FC01C281D381209771F0E881F9810480E7
:1016F000F581E02DB801CE010995009731F40884F9
:10170000D985C02DF0CF80E090E0DF91CF911F917F
:101710000F9108950F931F93CF93DF938B01FC01DB
:10172000C281D381209771F0E881F9810680F78129
:10173000E02DB801CE010995080F111D0884D98547
:10174000C02DF0CFF8011082DF91CF911F910F9142
:1017500008950F931F93CF93DF938B01FC01C281F8
:10176000D381209771F0E881F9810190F081E02D1B
:10177000B801CE010995811106C00884D985C02D14
:10178000F0CF80E001C081E0DF91CF911F910F91F8
:1017900008958091280281110DC082E08093240277
:1017A00084E080932502109227021092260281E0A5
:1017B0008093280284E292E00895AA1BBB1B51E1AA
:1017C00007C0AA1FBB1FA617B70710F0A61BB70BB1
:1017D000881F991F5A95A9F780959095BC01CD0156
:1017E0000895A1E21A2EAA1BBB1BFD010DC0AA1F62
:1017F000BB1FEE1FFF1FA217B307E407F50720F07A
:10180000A21BB30BE40BF50B661F771F881F991FF4
:101810001A9469F760957095809590959B01AC013D
:10182000BD01CF010895052E97FB1EF400940E9480
:101830002A0C57FD07D00E94F10B07FC03D04EF491
:101840000C942A0C50954095309521953F4F4F4F61
:101850005F4F089590958095709561957F4F8F4F5C
:101860009F4F0895EE0FFF1F0590F491E02D09940E
:04187000F894FFCF1A
:10187400C701FFFFFFFF00E100000000000000C1FE
:1018840080810000002D2D2D2D2D0000000000D59D
:10189400051C06FF050F06EB05FC050D0A006E612D
:0C18A4006E00696E66006F7666002E0014
:00000001FF
