:100000000C94EC000C9414010C9414010C94140145
:100010000C9414010C9414010C9414010C9414010C
:100020000C9414010C9414010C949A0C0C942C0B49
:100030000C9414010C9414010C9414010C941401EC
:100040000C9414010C9414010C9414010C941401DC
:100050000C9414010C9414010C9414010C94F904E4
:100060000C9414010C9414010C9414010C941401BC
:100070000C9414010C9414010C9414010C941401AC
:100080000C9414010C9414010C9414010C9414019C
:100090000C9414010C9414010C9414010C9414018C
:1000A0000C9414010C9414010C94140113061606FC
:1000B000050609060F063706370637061A061E0616
:1000C000220628062C063706320600000002000928
:1000D0000F0000030401000C0000000000000000FD
:1000E00000000000000000000408020110408040F1
:1000F000102040804080080204018040201002014E
:10010000108010204040040404040403040502028B
:1001100002020403020202020606060606060404A0
:1001200002020204000000002300260029002C0027
:100130002F0000000000250028002B002E003100B9
:1001400000000000240027002A002D003000080BCA
:100150000002020201000904000001020200000581
:1001600024001001052401010104240206052406CF
:1001700000010705810310004009040100020A0084
:10018000000007050202400000070583024000004E
:1001900012010002EF0201404123378000010102F9
:1001A00003011201000200000040412337800001DA
:1001B0000102030141726475696E6F204C4C43006B
:1001C00041726475696E6F204D6963726F0004033C
:1001D00009041E04B707240411241FBECFEFDAE080
:1001E000DEBFCDBF11E0A0E0B1E0E2ECF4E202C07E
:1001F00005900D92AA34B107D9F722E0AAE4B1E044
:1002000001C01D92A834B207E1F711E0C6EDD1E0BC
:1002100004C02297FE010E94AE0FC23DD107C9F76C
:100220000E94A80E0C9454120C940000CF92DF92FE
:10023000EF92FF92CF93DF93EC016A017B01642F71
:100240000E940F129927F7FC9A958F2D7E2D6D2D08
:10025000CE0101960E940F12B701992777FD909564
:10026000892FCE0102960E940F126F2D77278827C3
:100270009927CE010396DF91CF91FF90EF90DF9009
:10028000CF900C940F12CF92DF92EF92FF920F93C8
:100290001F93CF936B017C01CB010E940712182F93
:1002A000C60101960E940712C82FC60102960E943D
:1002B0000712082FC60103960E940712C82E8C2F22
:1002C00090E0A0E0B0E06627782F892F9A2F610F89
:1002D000711D811D911D10E020E030E09801112773
:1002E0000027600F711F821F931FD12CE12CF12C6E
:1002F000FC2CEE24DD24CC246C0D7D1D8E1D9F1D59
:10030000CF911F910F91FF90EF90DF90CF900895C4
:10031000CF93DF93EB011092710061E085E00E94C2
:10032000380660E085E00E9471069E01442737FD93
:100330004095542F60E47FE180E090E00E948D0FB3
:1003400082E08093900081E1809391003093970048
:1003500020939600C90163E070E00E94570F7093EC
:10036000990060939800DF91CF9108958F929F92AA
:10037000AF92BF92CF92DF92EF92FF926A017B0120
:10038000453051056105710500F10E944F054B0193
:100390005C0184E0C81AD108E108F108C80CD91C36
:1003A000EA1CFB1CC814D904EA04FB0438F40E94BC
:1003B0004F0586169706A806B906C8F30E944F0592
:1003C0006C157D058E059F05C8F3FF90EF90DF90BB
:1003D000CF90BF90AF909F908F9008952091900004
:1003E0002068209390006115710529F0AB0160E051
:1003F00070E00C94B6010895209190002F7720931F
:1004000090006115710529F0AB0160E070E00C947B
:10041000B6010895CF92DF92EF92FF920F931F9350
:10042000CF93DF937C018B016A01B9010E9488019F
:10043000E80100E010E00C151D0571F0688179817C
:10044000C70100FF03C00E94FC0102C00E94EE0130
:100450000F5F1F4F2296EFCF809190008F77809390
:100460009000DF91CF911F910F91FF90EF90DF905F
:10047000CF900895962728E030E0AC01440F551F37
:1004800097FF06C0CA0161E2862760E1962701C096
:10049000CA012150310989F708950F931F93CF9313
:1004A000DF938B01EC01080F191F80E090E0C0176B
:1004B000D10721F069910E943A02F9CFDF91CF91E3
:1004C0001F910F9108954F925F926F927F928F923A
:1004D0009F92AF92BF92CF92DF92EF92FF920F93D3
:1004E0001F93CF93DF93CDB7DEB72A970FB6F8945B
:1004F000DEBF0FBECDBF4B015C0188E7E6E5F1E052
:10050000DF011D928A95E9F710925501C501B401EA
:1005100020E432E44FE050E00E946B0FAAE0CA2EC4
:10052000D12CE12CF12CCA01B901A70196010E943E
:100530006B0F00EF060FC501B40120EA36E841E079
:1005400050E00E946B0FCA01B901A70196010E94F9
:100550006B0F762EC501B40120E137E240E050E098
:100560000E946B0FCA01B901A70196010E946B0F8F
:10057000162FB0E17B9E100D1124C501B40128EEA9
:1005800033E040E050E00E946B0FCA01B901A701BF
:1005900096010E946B0F662EC501B40124E630E07F
:1005A00040E050E00E946B0FCA01B901A70196011B
:1005B0000E946B0F762EE0E16E9E700C1124C50137
:1005C000B401A70196010E946B0FB62ECA01B901B2
:1005D000A70196010E946B0FFB2CF0E16F9FF00CBE
:1005E0001124FF82788619870A8764E070E0CE01C3
:1005F00007960E944D020095098390959A83109565
:100600001B8370947C82F094FD8280958E839E0182
:100610002C5F3F4FAE014F5F5F4F80E090E0DC0109
:10062000880F991FAA1FBB1F0196A11DB11DBA2FCC
:10063000A92F982F8827F90162919F01860F911D9C
:10064000A11DB11D880F991FAA1FBB1F24173507B5
:1006500039F7FE0137962D5F3F4FC12CD12C760123
:10066000CC0CDD1CEE1CFF1C4FEFC41AD40AE40AAC
:10067000F40AFE2CED2CDC2CCC244291C40ED11CAF
:10068000E11CF11CCC0CDD1CEE1CFF1CE217F30777
:1006900039F70091550110E0B12CAA24A3940097DA
:1006A000A105B10529F1412F50E060E070E02C0177
:1006B0003D01E1E04E225524662477244416550678
:1006C0006606770679F0E02FF0E0EE0FFF1FEA5A9A
:1006D000FE4F2B2D30E0318320831A2511700F5FE0
:1006E000B12CDDCFB394B695A79597958795D7CFC5
:1006F000009355016BE171E08DED91E00E94F507EB
:1007000020915501C114D104E104F10431F1812F8C
:1007100090E0A0E0B0E0B701A60141705527662740
:100720007727481759076A077B0789F0E22FF0E01F
:10073000EE0FFF1FEA5AFE4F8B2D90E091838083CE
:100740002F5F81E0111180E0182FB12CDBCFB39423
:10075000F694E794D794C794D5CF2093550130E011
:10076000E6E5F1E080E090E0A8E1821793075CF411
:1007700060817181A69FA001A79F500D1124419314
:1007800051930196F2CF2A960FB6F894DEBF0FBEB2
:10079000CDBFDF91CF911F910F91FF90EF90DF9030
:1007A000CF90BF90AF909F908F907F906F905F9011
:1007B0004F90089560E08EE00E94380661E08EE080
:1007C0000E94710661E08FE00E94380660E08FE0D1
:1007D0000E94710640E855E260E070E08DED91E026
:1007E0000E94B1078EE00E94A706892B89F088EC51
:1007F00090E0A0E0B0E080934E0190934F01A09371
:100800005001B09351016CE375EF82E190E010C0AC
:1008100088EE93E0A0E0B0E080934E0190934F010A
:10082000A0935001B093510162E772ED87E890E028
:100830000E94630261E081E10C9438066AE371E092
:100840008EEC91E00C94A00D8EEC91E00C94320DA6
:10085000CF92DF92EF92FF920F931F93CF93DF938C
:1008600000D000D000D0CDB7DEB78DED91E00E9472
:10087000FA06181619060CF05DC06DED71E0CE0198
:1008800001960E94EA08BE016F5F7F4F8EEC91E0F7
:100890000E94EC0DCE0101960E94320D61E271E0E2
:1008A0008EEC91E00E944F0E8823A1F060E470E08E
:1008B00080E090E00E944301AB01BC012AE030E0FF
:1008C0008DED91E00E94AA086AE371E08EEC91E060
:1008D0000E94F80D8091D2019091D301089750F1B8
:1008E00047E050E060E070E08EEC91E00E946E0E18
:1008F0008EEC91E00E949C0EAB01BC0180E490E084
:100900000E94160188EB9BE00E949A0560E470E06B
:1009100080E090E00E944301AB01BC012AE030E09E
:100920008DED91E00E94AA086AE371E08EEC91E0FF
:100930000E94F80D20910601309107014091550168
:1009400050E066E571E084E591E00E940A0280EDE6
:1009500097E00E949A050E94430500914A01109178
:100960004B0120914C0130914D016B017C01C01A6B
:10097000D10AE20AF30A00914E0110914F01209131
:10098000500130915101C016D106E206F306F0F095
:1009900060934A0170934B0180934C0190934D01F9
:1009A0008091520190915301892B39F481E090E0BC
:1009B000909353018093520104C0109253011092FE
:1009C00052016091520181E10E94710688E097E036
:1009D0000E949A0526960FB6F894DEBF0FBECDBFD3
:1009E000DF91CF911F910F91FF90EF90DF90CF900B
:1009F00008951F920F920FB60F9211242F933F93D9
:100A00008F939F93AF93BF938091D5019091D6011F
:100A1000A091D701B091D8013091D40123E0230FE8
:100A20002D3720F40196A11DB11D05C026E8230F26
:100A30000296A11DB11D2093D4018093D5019093FE
:100A4000D601A093D701B093D8018091D90190919C
:100A5000DA01A091DB01B091DC010196A11DB11D6D
:100A60008093D9019093DA01A093DB01B093DC016C
:100A7000BF91AF919F918F913F912F910F900FBE9A
:100A80000F901F9018952FB7F8946091D501709131
:100A9000D6018091D7019091D8012FBF08953FB71B
:100AA000F8948091D9019091DA01A091DB01B09185
:100AB000DC0126B5A89B05C02F3F19F00196A11DAA
:100AC000B11D3FBF6627782F892F9A2F620F711DA6
:100AD000811D911D42E0660F771F881F991F4A955F
:100AE000D1F70895CF92DF92EF92FF92CF93DF93E9
:100AF0006B017C010E944F05EB01C114D104E1049C
:100B0000F10489F00E94BB0E0E944F056C1B7D0B07
:100B1000683E734090F381E0C81AD108E108F108FB
:100B2000C851DC4FEACFDF91CF91FF90EF90DF907B
:100B3000CF9008958230910538F0880F991F880F63
:100B4000991F05970197F1F70895789484B582600D
:100B500084BD84B5816084BD85B5826085BD85B561
:100B6000816085BDEEE6F0E0808181608083E1E810
:100B7000F0E0108280818260808380818160808348
:100B8000E0E8F0E0808181608083E1E9F0E080814D
:100B900082608083808181608083E0E9F0E08081F1
:100BA00081608083E1ECF0E08081846080838081DB
:100BB00082608083808181608083E3ECF0E08081CB
:100BC00081608083E0ECF0E0808182608083E2ECF1
:100BD000F0E0808181608083EAE7F0E080818460DA
:100BE0008083808182608083808181608083808136
:100BF00080688083089590E0FC013197EF30F10523
:100C0000B0F5EA5AFF4F0C94AC0F809180008F77BB
:100C100003C0809180008F7D809380000895809133
:100C20008000877FF9CF84B58F7702C084B58F7D30
:100C300084BD0895809190008F7707C080919000C7
:100C40008F7D03C080919000877F809390000895EE
:100C50008091C0008F7703C08091C0008F7D80930A
:100C6000C00008958091C200877F8093C2000895DC
:100C7000CF93DF9390E0FC01E851FF4F2491FC01FA
:100C8000EA5FFE4F8491882349F190E0880F991F15
:100C9000FC01E05CFE4FA591B4918E5C9E4FFC017F
:100CA000C591D4919FB7611108C0F8948C9120959B
:100CB00082238C93888182230AC0623051F4F89495
:100CC0008C91322F309583238C938881822B88835B
:100CD00004C0F8948C91822B8C939FBFDF91CF91AD
:100CE00008950F931F93CF93DF931F92CDB7DEB775
:100CF000282F30E0F901E653FF4F8491F901E851C4
:100D0000FF4F1491F901EA5FFE4F04910023C9F0EF
:100D1000882321F069830E94FB056981E02FF0E0C0
:100D2000EE0FFF1FEE5CFE4FA591B4919FB7F894B4
:100D30008C91611103C01095812301C0812B8C938C
:100D40009FBF0F90DF91CF911F910F910895CF9387
:100D5000DF93282F30E0F901E653FF4F8491F9012A
:100D6000E851FF4FD491F901EA5FFE4FC491CC23C3
:100D700091F081110E94FB05EC2FF0E0EE0FFF1FB8
:100D8000EC5DFE4FA591B4912C912D2381E090E074
:100D900021F480E002C080E090E0DF91CF910895DF
:100DA000CF93DF931F92CDB7DEB76983DC01ED915E
:100DB000FC910280F381E02D41E050E0BE016F5FC5
:100DC0007F4F09950F90DF91CF910895CF93DF93D7
:100DD000EC018C859D8597FF05C082E00E94150A75
:100DE0009D878C878C859D85DF91CF91089583E0C9
:100DF0000C94900CFC018485958597FD06C082E0DB
:100E00000E94BD0990E00196089582E00E94BD090C
:100E100090E00895FC018485958597FD05C02FEF2E
:100E20003FEF35872487089582E00C94150ACF930D
:100E3000DF93EC0180911301882331F083E00E945D
:100E4000460A1816190634F081E090E09B838A83E5
:100E500080E090E0DF91CF910895FC0120812E5F2A
:100E6000208342E450E06EE471E080E80C94E10AF3
:100E7000FC0121818081813A59F4213209F05CC062
:100E800047E050E06CE071E080E00E94E10A67C05A
:100E9000813209F051C0233289F4838190E0982F88
:100EA00088273281832BA0E0B0E0809308019093E3
:100EB0000901A0930A01B0930B010FC0203239F44D
:100EC00067E070E08CE091E00E94120B0AC02232D1
:100ED00021F482818093130104C02D7F203209F018
:100EE0003EC080910C0190910D01A0910E01B09136
:100EF0000F01803B9440A105B10501F580911301DC
:100F000080FD1CC080910008909101089093FF0A19
:100F10008093FE0A87E797E7909301088093000883
:100F20002BE088E190E00FB6F894A89580936000DC
:100F30000FBE2093600013C080E0089588E10FB6D3
:100F4000F89480936000109260000FBEA895809185
:100F5000FE0A9091FF0A909301088093000881E0B7
:100F600008952FEF3FEFFC013587248708951092F5
:100F7000E0011092DF0188EE93E0A0E0B0E0809302
:100F8000E1019093E201A093E301B093E4018CE2CC
:100F900091E09093DE018093DD018FEF9FEF9093BE
:100FA000EA018093E90108956115710581F0DB0183
:100FB0000D900020E9F7AD0141505109461B570B38
:100FC000DC01ED91FC910280F381E02D099480E039
:100FD00090E00895DC01ED91FC910190F081E02D0D
:100FE000099468E371E00C94D4070F931F93CF9397
:100FF000DF93EC010E94D4078C01CE010E94F1071F
:10100000800F911FDF91CF911F910F9108958F92C3
:101010009F92AF92BF92CF92DF92EF92FF920F9387
:101020001F93CF93DF93CDB7DEB7A1970FB6F89498
:10103000DEBF0FBECDBF7C01C42EE52FCB01D22E6B
:1010400019A221E02D1510F02AE0D22E8E010F5D9D
:101050001F4F8D2C912CA12CB12C6C2D7E2FA50116
:1010600094010E946B0F8C2DD29E80191124015087
:1010700011098A3014F4805D01C0895CF801808315
:10108000211531054105510521F0C22EE32FCA017A
:10109000E4CFB801C7010E94D407A1960FB6F89417
:1010A000DEBF0FBECDBFDF91CF911F910F91FF909B
:1010B000EF90DF90CF90BF90AF909F908F9008956A
:1010C000CF92DF92EF92FF920F931F93CF93DF9314
:1010D000EC016A017B012115310579F4E881F98180
:1010E0000190F081E02D642FDF91CF911F910F913E
:1010F000FF90EF90DF90CF9009942A303105E9F40A
:1011000077FF1AC06DE20E94EA078C014427552739
:10111000BA014C195D096E097F092AE0CE010E94CF
:101120000708800F911FDF91CF911F910F91FF90C2
:10113000EF90DF90CF9008952AE0B701A601CE018D
:10114000DF91CF911F910F91FF90EF90DF90CF90A3
:101150000C9407080F931F93CF93DF93EC010E9429
:1011600060088C01CE010E94F107800F911FDF9172
:10117000CF911F910F9108950F931F93CF93DF93FA
:10118000EC010E944305688779878A879B87E881FD
:10119000F9810680F781E02DCE01099597FF15C0F2
:1011A0000E944305088519852A853B85601B710BC4
:1011B000820B930B0C811D812E813F81601771077B
:1011C0008207930720F38FEF9FEFDF91CF911F915D
:1011D0000F9108950F931F93CF93DF93EC018B0131
:1011E0006AE371E00E94A00DC8010E94BC0897FD4F
:1011F00005C0682FCE010E943C0EF6CFCE01DF91D4
:10120000CF911F910F910895615030F02091F1001E
:10121000FC0120830196F8CF289A84E68093360259
:101220000895409131025091320220912F02309165
:10123000300242175307B4F49091E8009570E1F33F
:101240009091E80092FD19C08093F10080913102E5
:101250009091320201968F739927892B19F48EEFA2
:101260008093E80080913102909132020196909330
:1012700032028093310281E0089580E00895CF9298
:10128000DF92EF92FF920F931F93CF93DF931F9202
:10129000CDB7DEB7082F162FF42E862F880F8E5F5E
:1012A00099830E94110983E00E941109E02EC02E4B
:1012B0009981D92E8C2D8E19811798F4F601F7FE9D
:1012C00002C0849101C080810E941109082F80E032
:1012D0000E9411098023FFEFCF1ADF0A8111EACFA4
:1012E00001C081E00F90DF91CF911F910F91FF908E
:1012F000EF90DF90CF9008958091D7008160809328
:10130000D70080EA8093D80089B5806189BD89B50E
:10131000826089BD09B400FEFDCF61E070E080E02D
:1013200090E00E9472058091D8008F7C806180934C
:10133000D8008091E000807F8093E0000895CF93F3
:10134000DF931F92CDB7DEB71982CE0101960E94BE
:101350002D070E94430FBE016F5F7F4F0E94BC0E9E
:1013600089810F90DF91CF9108952FB7FC012083E1
:10137000F89467706093E9000895CF93DF931F920C
:10138000CDB7DEB7682FCE0101960E94B5098091D6
:10139000F20099819FBF0F90DF91CF910895FF9246
:1013A0000F931F93CF93DF9300D0CDB7DEB7F62E08
:1013B0008A0190913502992311F057FF03C08FEFF6
:1013C0009FEF2BC0682FCE0101967A830E94B5094A
:1013D0008091F20090E0A8017A81801791070CF4C7
:1013E000AC01EF2DF72FF40E84E6FE1639F0289AA3
:1013F000809336029091F1009193F7CF41155105FA
:1014000021F08091F200882321F089818FBFCA01E9
:1014100004C08BE68093E800F8CF0F900F90DF9127
:10142000CF911F910F91FF900895CF93DF931F925B
:10143000CDB7DEB741E050E0BE016F5F7F4F0E9445
:10144000CF09019719F4898190E002C08FEF9FEFD7
:101450000F90DF91CF910895CF93DF931F92CDB777
:10146000DEB7682FCE0101960E94B5099091E80081
:10147000892F807295FF04C09091F20080E4891B4F
:1014800099819FBF0F90DF91CF9108956F927F92C6
:101490008F929F92AF92BF92CF92DF92EF92FF9284
:1014A0000F931F93CF93DF931F92CDB7DEB7782EA4
:1014B0007B01C42EB52E80913502882369F0042F5C
:1014C000152F8AEFD82E872D8072982E9AE3A92E99
:1014D000872D8074882E11C08FEF9FEF57C0872D06
:1014E0000E942C0A682E81110CC0DA94A9F361E0E5
:1014F00070E080E090E00E9472050115110579F717
:101500003BC0282F30E0021713070CF4602E672D24
:10151000CE0101960E94B5098091E80085FF29C09F
:10152000262D30E0021B130B992039F06A948FEFBF
:101530006816B1F01092F100F9CFF701862D77FE11
:1015400007C0815058F094919093F1003196F9CFF3
:10155000815020F091919093F100FACFE20EF31EAA
:101560008091E80085FF0FC00115110511F481106D
:101570000AC089818FBFC1CF5D9A84E6809337020C
:101580008C2D9B2D03C0A092E800F3CF0F90DF912C
:10159000CF911F910F91FF90EF90DF90CF90BF9070
:1015A000AF909F908F907F906F9008951092E90078
:1015B00010923202109231029093300280932F02E7
:1015C0000895CF92DF92FF920F931F93CF93DF93F3
:1015D00000D0CDB7DEB7F82E8A016B0101151105D9
:1015E000B1F0F601F7FE02C0849101C08081498309
:1015F0005A830E94110901501109FFEFCF1ADF0A27
:1016000049815A818111EACF8FEF9FEF01C0CA0152
:101610000F900F90DF91CF911F910F91FF90DF906E
:10162000CF9008951F93CF93DF931F92CDB7DEB76E
:10163000162F2091E80022FFFCCF612F79830E94B2
:1016400004098BEF8093E800812F7981972F0F9009
:10165000DF91CF911F9108951F920F920FB60F92B5
:101660001124DF92EF92FF920F931F932F933F93DA
:101670004F935F936F937F938F939F93AF93BF939A
:10168000EF93FF93CF93DF93CDB7DEB76C97DEBFB9
:10169000CDBF1092E9008091E80083FF23C168E08C
:1016A000CE0145960E94040982EF8093E8003D89AF
:1016B00037FF05C08091E80080FFFCCF03C08EEFAC
:1016C0008093E800832F807609F0F0C02E894F893F
:1016D000D88C21110CC0303829F4809134028093C9
:1016E000F10002C01092F1001092F100F4C0842FBA
:1016F00090E09D29213049F43111EDC0019709F0A6
:10170000EAC0809134028D7F0AC0233059F4311130
:10171000E2C0019709F0DFC08091340282608093BB
:101720003402D9C0253041F48091E80080FFFCCF1D
:1017300040684093E300CFC0263009F08DC0EB8CA9
:10174000FC8C22E0D2122CC080E090E00E94D60AED
:101750000E949F0999E08E010F5F1F4FF801292F0A
:1017600011922A95E9F79983DA8291E09E8390EAB3
:1017700098879AEF99872091310230913202275F42
:101780003F4F3C832B838D83C7010E94D60A49E0DB
:1017900050E0B80180E00E94E10A0E949F099BC0CE
:1017A000C7010E94D60A0E94430FBE016B5E7F4FA5
:1017B0000E94E50E009719F00CF08DC090C081E0FA
:1017C000D8120EC08B8D9C8D089719F481E0809300
:1017D0002E0280912E0281112FC062EA71E031C089
:1017E000E3E0DE127CC08F89882349F1823029F43E
:1017F00040E86DE080EC91E01CC0813029F440E8C5
:101800006BE084EB91E015C0833009F068C00E9462
:10181000430F8E010F5F1F4FB8010E94040FF801A4
:1018200001900020E9F73197E01BF10B40E06E2FAB
:10183000C8010E943F094DC060E971E002C06EEC32
:1018400071E06115710509F44AC0FB01449150E053
:1018500080E80E94E10A3FC0273009F440C02830E8
:1018600021F481E08093F10036C02930A1F5337076
:10187000B1F5E5E1F1E081E021E036E390819923E3
:1018800061F08093E9002093EB0091919093EC003C
:101890003093ED008F5F873089F78EE78093EA0001
:1018A0001092EA008F898093350215C08B8D9C8D34
:1018B0000E94D60A898D811105C0CE0145960E94ED
:1018C000380707C00E94430FBE016B5E7F4F0E9426
:1018D000230F882321F08EEF8093E80003C081E27C
:1018E0008093EB006C960FB6F894DEBF0FBECDBFB1
:1018F000DF91CF91FF91EF91BF91AF919F918F9128
:101900007F916F915F914F913F912F911F910F9117
:10191000FF90EF90DF900F900FBE0F901F901895E3
:101920008093E9008091F200882319F08AE3809384
:10193000E80008951F920F920FB60F9211242F9373
:101940003F934F935F936F937F938F939F93AF9347
:10195000BF93CF93EF93FF93C091E1008091E1009B
:10196000837F8093E1008093E100C3FF0FC010925A
:10197000E90081E08093EB001092EC0082E3809319
:10198000ED001092350288E08093F000C2FF19C08C
:1019900083E00E94900C80913702882339F0809177
:1019A0003702815080933702882389F18091360273
:1019B000882339F080913602815080933602882343
:1019C00041F1C4FF10C08091E2008E7E816080935F
:1019D000E2008091E1008F7E8093E10080913302EC
:1019E0008E7E806111C0C0FF16C08091E2008E7EA5
:1019F00080618093E2008091E1008E7E8093E1001F
:101A0000809133028E7E81608093330204C05D98A2
:101A1000CDCF2898D6CFFF91EF91CF91BF91AF91C5
:101A20009F918F917F916F915F914F913F912F91F6
:101A30000F900FBE0F901F901895109235021092C4
:101A40003402109233020E947C09E1EEF0E08081C2
:101A50008E7E80838DE08093E200559A209A5D9877
:101A600028980895FC01808191810C944A10CF93AD
:101A7000DF93EC0188819981009711F00E944A1050
:101A8000198218821D821C821B821A82DF91CF91DB
:101A900008950F931F93CF93DF93EC018B016F5F3A
:101AA0007F4F888199810E94D910009731F09983E6
:101AB00088831B830A8381E001C080E0DF91CF919E
:101AC0001F910F910895CF93DF93EC018881998145
:101AD000892B29F08A819B818617970760F4CE01B4
:101AE0000E94490D882341F08C819D81892B19F436
:101AF000E881F981108281E0DF91CF910895EF9222
:101B0000FF920F931F93CF93DF93EC017B018A0128
:101B1000BA010E94630D811104C0CE010E94370DED
:101B200007C01D830C83B701888199810E94DC1155
:101B3000CE01DF91CF911F910F91FF90EF9008950B
:101B4000FC011182108213821282158214826115A7
:101B5000710559F0FB0101900020E9F7AF014150F8
:101B60005109461B570B0C947F0D08950F931F933B
:101B7000CF93DF938C01EB01FC0180819181009771
:101B800099F0428153812C813D814217530750F0D7
:101B9000688179810E94DC118C819D81F801958397
:101BA000848313C00E944A1088819981F80191832F
:101BB00080838A819B81938382838C819D8195839D
:101BC0008483198218821B821A821D821C82DF91F3
:101BD000CF911F910F910895CF93DF93EC0186175A
:101BE000970711F00E94B60DCE01DF91CF910895B5
:101BF000CF93DF93EC016115710561F0FB0101905A
:101C00000020E9F7AF0141505109461B570B0E94D4
:101C10007F0D02C00E94370DCE01DF91CF91089554
:101C2000EF92FF920F931F93CF93DF93EC017B0111
:101C30000C811D816115710511F480E016C04115FC
:101C4000510591F0040F151FB8010E94630D882300
:101C5000A1F3288139818C819D81B701820F931F67
:101C60000E94DC111D830C8381E0DF91CF911F91D5
:101C70000F91FF90EF900895CF93DF9300D0CDB7F1
:101C8000DEB769831A8241E050E0BE016F5F7F4F8B
:101C90000E94100E0F900F90DF91CF910895FC01DC
:101CA00024813581232B31F421E061157105A1F0E8
:101CB000FB0108C0FC01808191816115710531F43F
:101CC00021E0FC018081882339F005C00E94D311F6
:101CD00021E0892B09F020E0822F0895CF93DF9334
:101CE000EC01CB012C813D816217730710F5411582
:101CF0005105F9F0B901681B790B4617570708F42D
:101D0000BA01E881F981261B370B3D832C83A90199
:101D1000481B590B680F791F6E0F7F1F8E0F9F1F77
:101D20000E94E311E881F9818C819D81E80FF91F00
:101D30001082DF91CF910895FC01808191810097FD
:101D400011F00C94A31160E070E0CB0108950895A8
:101D50000E94A5050E94A70E8DE292E00E941D0D33
:101D60000E94DA03C0E0D0E00E9428042097E1F34B
:101D70000E940000F9CF0895EF92FF920F931F93F6
:101D8000CF93DF937B01FC01C281D38100E010E09F
:101D9000209781F0E881F9810280F381E02DB7017D
:101DA000CE01099597FD08C0080F191F0884D98531
:101DB000C02DEECFC80102C08FEF9FEFDF91CF9112
:101DC0001F910F91FF90EF9008950F931F93CF9362
:101DD000DF938B01FC01C281D381209771F0E881F0
:101DE000F9810480F581E02DB801CE0109950097B5
:101DF00031F40884D985C02DF0CF80E090E0DF91E8
:101E0000CF911F910F9108950F931F93CF93DF935D
:101E10008B01FC01C281D381209771F0E881F981A7
:101E20000680F781E02DB801CE010995080F111D3C
:101E30000884D985C02DF0CFF8011082DF91CF91B1
:101E40001F910F9108950F931F93CF93DF938B01F1
:101E5000FC01C281D381209771F0E881F981019062
:101E6000F081E02DB801CE010995811106C00884EA
:101E7000D985C02DF0CF80E001C081E0DF91CF9106
:101E80001F910F91089580913C0281110DC082E055
:101E90008093380284E08093390210923B021092C2
:101EA0003A0281E080933C0288E392E00895AA1B05
:101EB000BB1B51E107C0AA1FBB1FA617B70710F035
:101EC000A61BB70B881F991F5A95A9F78095909567
:101ED000BC01CD010895A1E21A2EAA1BBB1BFD0176
:101EE0000DC0AA1FBB1FEE1FFF1FA217B307E407F9
:101EF000F50720F0A21BB30BE40BF50B661F771F51
:101F0000881F991F1A9469F7609570958095909530
:101F10009B01AC01BD01CF010895052E97FB1EF476
:101F200000940E94A40F57FD07D00E946B0F07FC7E
:101F300003D04EF40C94A40F509540953095219504
:101F40003F4F4F4F5F4F08959095809570956195E5
:101F50007F4F8F4F9F4F0895EE0FFF1F0590F49115
:101F6000E02D0994CF93DF938230910510F482E045
:101F700090E0E0914602F091470220E030E0A0E0DE
:101F8000B0E0309739F14081518148175907B8F0D6
:101F90004817590771F482819381109729F013969D
:101FA0009C938E9312972CC0909347028093460285
:101FB00027C02115310531F04217530718F0A90148
:101FC000DB0101C0EF019A01BD01DF010280F38155
:101FD000E02DD7CF21153105F9F0281B390B24301E
:101FE000310580F48A819B816115710521F0FB0127
:101FF0009383828304C09093470280934602FE013C
:10200000329644C0FE01E20FF31F81939193225058
:102010003109398328833AC0209144023091450226
:10202000232B41F4209102013091030130934502AA
:1020300020934402209100013091010121153105C6
:1020400041F42DB73EB74091040150910501241B86
:10205000350BE0914402F0914502E217F307A0F43A
:102060002E1B3F0B2817390778F0AC014E5F5F4FEE
:102070002417350748F04E0F5F1F509345024093D9
:1020800044028193919302C0E0E0F0E0CF01DF9140
:10209000CF910895CF93DF93009709F487C0FC0197
:1020A000329713821282C0914602D0914702209744
:1020B00081F420813181280F391F80914402909151
:1020C00045028217930779F5F0934502E0934402A5
:1020D0006DC0DE0120E030E0AE17BF0750F412966D
:1020E0004D915C9113979D014115510509F1DA015C
:1020F000F3CFB383A28340815181840F951F8A1748
:102100009B0771F48D919C911197840F951F0296F6
:102110009183808312968D919C91139793838283F0
:102120002115310529F4F0934702E09346023EC0A1
:10213000D9011396FC93EE9312974D915D91A40FE4
:10214000B51FEA17FB0779F480819181840F951FF1
:102150000296D90111969C938E9382819381139656
:102160009C938E931297E0E0F0E08A819B81009728
:1021700019F0FE01EC01F9CFCE01029628813981D8
:10218000820F931F2091440230914502281739078E
:1021900069F4309729F4109247021092460202C067
:1021A00013821282D0934502C0934402DF91CF91F3
:1021B0000895A0E0B0E0EFEDF0E10C942112EC0105
:1021C000CB01209719F40E94B20FB8C0FE01E60FB0
:1021D000F71F9E0122503109E217F30708F4ACC043
:1021E000D9010D911C91119706171707B8F005300A
:1021F000110508F49FC0A80144505109461757071C
:1022000008F498C002501109061B170B0193119393
:102210006D937C93CF010E944A108CC05B01A01A81
:10222000B10A4E01800E911EA0914602B091470264
:10223000612C712C60E070E0109709F449C0A8157A
:10224000B905C9F5ED90FC901197670142E0C40E05
:10225000D11CCA14DB0478F147018A189B08640179
:1022600042E0C40ED11C1296BC9012971396AC910A
:10227000B5E0CB16D10440F0B282A3839182808274
:10228000D9018D939C9309C00E5F1F4F0E0D1F1D2A
:10229000F90111830083EB2DFA2F6115710531F0DF
:1022A000DB011396FC93EE93129744C0F093470220
:1022B000E09346023FC06D917C91119766167706B8
:1022C00008F43B01BD0112960D90BC91A02DB4CF36
:1022D000609144027091450268157905E9F4681629
:1022E0007906D0F44091000150910101411551054A
:1022F00041F44DB75EB76091040170910501461B32
:10230000570BE417F507C0F4F0934502E09344023D
:10231000F901918380830EC00E94B20F7C01009767
:1023200059F0A801BE010E94CA11CE010E944A10B4
:10233000C70104C0CE0102C080E090E0CDB7DEB797
:10234000EEE00C943D121F93FC0199278827BC01F5
:10235000E89411911032E9F3193010F01E30C8F3EF
:102360001B3251F01D3249F4689406C00E94F211EC
:10237000610F711D811D911D119110531A30B0F321
:102380003EF490958095709561957F4F8F4F9F4F4C
:102390001F910895FB01DC0102C001900D92415094
:1023A0005040D8F70895FB01DC018D910190801910
:1023B0000110D9F3990B0895FB01DC0101900D92F6
:1023C0000020E1F70895FB01DC014150504048F046
:1023D00001900D920020C9F701C01D92415050405C
:1023E000E0F70895592F482F372F262F660F771FB4
:1023F000881F991F660F771F881F991F620F731F11
:10240000841F951F660F771F881F991F0895F999DC
:10241000FECF92BD81BDF89A992780B50895262FE9
:10242000F999FECF1FBA92BD81BD20BD0FB6F894B9
:10243000FA9AF99A0FBE019608952F923F924F9201
:102440005F926F927F928F929F92AF92BF92CF9244
:10245000DF92EF92FF920F931F93CF93DF93CDB74D
:10246000DEB7CA1BDB0B0FB6F894DEBF0FBECDBFC5
:1024700009942A88398848885F846E847D848C8496
:102480009B84AA84B984C884DF80EE80FD800C819F
:102490001B81AA81B981CE0FD11D0FB6F894DEBF82
:1024A0000FBECDBFED01089511E0C6EDD1E004C02F
:1024B000FE010E94AE0F2296C83DD107C9F7F894DD
:0224C000FFCF4C
:1024C200000048028000C701FFFFFFFF00E100009B
:1024D2000000000000C180810000002D2D2D2D2D57
:1024E200007265616449440000000000D0061707CD
:1024F200FA060A07E606F7060D0A006E616E006923
:0A2502006E66006F7666002E000082
:00000001FF
