:100000000C946F010C9497010C9497010C94970138
:100010000C9497010C9497010C9497010C94970100
:100020000C9497010C9497010C94C70C0C94930BAF
:100030000C9497010C9497010C9497010C949701E0
:100040000C9497010C9497010C9497010C949701D0
:100050000C9497010C9497010C9497010C948805CB
:100060000C9497010C9497010C9497010C949701B0
:100070000C9497010C9497010C9497010C949701A0
:100080000C9497010C9497010C9497010C94970190
:100090000C9497010C9497010C9497010C94970180
:1000A0000C9497010C9497010C949701A206A50655
:1000B000940698069E06C606C606C606A906AD069E
:1000C000B106B706BB06C606C1060000000200095D
:1000D0000F0000030401000C0000000000000000FD
:1000E00000000000000000000408020110408040F1
:1000F000102040804080080204018040201002014E
:10010000108010204040040404040403040502028B
:1001100002020403020202020606060606060404A0
:1001200002020204000000002300260029002C0027
:100130002F0000000000250028002B002E003100B9
:1001400000000000240027002A002D003000080BCA
:100150000002020201000904000001020200000581
:1001600024001001052401010104240206052406CF
:1001700000010705810310004009040100020A0084
:10018000000007050202400000070583024000004E
:1001900000C18081C11201000202000040412337EA
:1001A0008000010102000112010002000000404134
:1001B00023378000010102000141726475696E6F8E
:1001C000204C4C430041726475696E6F204D696329
:1001D000726F000403090400000000000000002A00
:1001E0002B280000000000000000000000000000BC
:1001F000000000000000002C9EB4A0A1A2A434A620
:10020000A7A5AE362D3738271E1F202122232425EF
:1002100026B333B62EB7B89F8485868788898A8BA4
:100220008C8D8E8F909192939495969798999A9B96
:100230009C9D2F3130A3AD350405060708090A0B34
:100240000C0D0E0F101112131415161718191A1B76
:100250001C1DAFB1B0B5000904020001030000008D
:100260000921010100012265000705840340000106
:1002700005010902A1010901A10085010509190172
:100280002903150025019503750181029501750566
:10029000810305010930093109381581257F750869
:1002A00095038106C0C005010906A1018502050765
:1002B00019E029E7150025017501950881029501CE
:1002C0007508810395067508150025650507190051
:1002D00029658100C000B4042208D20FBA04112499
:1002E0001FBECFEFDAE0DEBFCDBF11E0A0E0B1E08E
:1002F000E6EAF5E202C005900D92AC34B107D9F7F9
:1003000022E0ACE4B1E001C01D92AB35B207E1F7E9
:1003100012E0CCEDD2E004C02297FE010E9436101C
:10032000C63DD107C9F70E94880E0C94C6120C94E2
:100330000000F999FECF92BD81BDF89A80B508956D
:10034000F999FECF1FBA92BD81BD60BD0FB6F8947A
:10035000FA9AF99A0FBE0895CF92DF92EF92FF9228
:10036000CF93DF93EC016A017B01642F0E94A0010F
:100370009927F7FC9A958F2D7E2D6D2DCE01019634
:100380000E94A001B701992777FD9095892FCE0192
:1003900002960E94A0016F2D772788279927CE010A
:1003A0000396DF91CF91FF90EF90DF90CF900C9468
:1003B000A001CF92DF92EF92FF920F931F93CF9302
:1003C0006B017C01CB010E949901182FC601019697
:1003D0000E949901C82FC60102960E949901082F18
:1003E000C60103960E949901C82E8C2F90E0A0E0D0
:1003F000B0E06627782F892F9A2F610F711D811D1C
:10040000911D10E020E030E0980111270027600FD7
:10041000711F821F931FD12CE12CF12CFC2CEE2498
:10042000DD24CC246C0D7D1D8E1D9F1DCF911F9151
:100430000F91FF90EF90DF90CF900895CF93DF93CF
:10044000EB011092710061E085E00E94C70660E058
:1004500085E00E9400079E01442737FD4095542FF8
:1004600060E47FE180E090E00E94151082E08093DC
:10047000900081E180939100309397002093960043
:10048000C90163E070E00E94DF0F709399006093F0
:100490009800DF91CF9108958F929F92AF92BF9273
:1004A000CF92DF92EF92FF926A017B0145305105B6
:1004B0006105710500F10E94DE054B015C0184E0DD
:1004C000C81AD108E108F108C80CD91CEA1CFB1CA9
:1004D000C814D904EA04FB0438F40E94DE05861629
:1004E0009706A806B906C8F30E94DE056C157D05BF
:1004F0008E059F05C8F3FF90EF90DF90CF90BF90DF
:10050000AF909F908F900895209190002068209345
:1005100090006115710529F0AB0160E070E00C946A
:100520004C020895209190002F7720939000611540
:10053000710529F0AB0160E070E00C944C02089565
:10054000CF92DF92EF92FF920F931F93CF93DF939F
:100550007C018B016A01B9010E941E02E80100E0E2
:1005600010E00C151D0571F068817981C70100FF4D
:1005700003C00E94920202C00E9484020F5F1F4FBC
:100580002296EFCF809190008F7780939000DF913B
:10059000CF911F910F91FF90EF90DF90CF90089532
:1005A000962728E030E0AC01440F551F97FF06C0A6
:1005B000CA0161E2862760E1962701C0CA01215085
:1005C000310989F708950F931F93CF93DF938B0120
:1005D000EC01080F191F80E090E0C017D10721F04F
:1005E00069910E94D002F9CFDF91CF911F910F91B5
:1005F00008954F925F926F927F928F929F92AF92E7
:10060000BF92CF92DF92EF92FF920F931F93CF93FF
:10061000DF93CDB7DEB72A970FB6F894DEBF0FBED3
:10062000CDBF4B015C0188E7E8E5F1E0DF011D92F9
:100630008A95E9F710925701C501B40120E432E42C
:100640004FE050E00E94F30FAAE0CA2ED12CE12C1B
:10065000F12CCA01B901A70196010E94F30F00EF26
:10066000060FC501B40120EA36E841E050E00E94DF
:10067000F30FCA01B901A70196010E94F30F762E6C
:10068000C501B40120E137E240E050E00E94F30FE1
:10069000CA01B901A70196010E94F30F162FB0E11C
:1006A0007B9E100D1124C501B40128EE33E040E01B
:1006B00050E00E94F30FCA01B901A70196010E9400
:1006C000F30F662EC501B40124E630E040E050E0AF
:1006D0000E94F30FCA01B901A70196010E94F30F0E
:1006E000762EE0E16E9E700C1124C501B401A701C5
:1006F00096010E94F30FB62ECA01B901A701960117
:100700000E94F30FFB2CF0E16F9FF00C1124FF828D
:10071000788619870A8764E070E0CE0107960E9408
:10072000E3020095098390959A8310951B8370943A
:100730007C82F094FD8280958E839E012C5F3F4FDA
:10074000AE014F5F5F4F80E090E0DC01880F991FA2
:10075000AA1FBB1F0196A11DB11DBA2FA92F982F4B
:100760008827F90162919F01860F911DA11DB11D7E
:10077000880F991FAA1FBB1F2417350739F7FE01E1
:1007800037962D5F3F4FC12CD12C7601CC0CDD1C50
:10079000EE1CFF1C4FEFC41AD40AE40AF40AFE2C24
:1007A000ED2CDC2CCC244291C40ED11CE11CF11C9C
:1007B000CC0CDD1CEE1CFF1CE217F30739F700918F
:1007C000570110E0B12CAA24A3940097A105B1050C
:1007D00029F1412F50E060E070E02C013D01E1E0A3
:1007E0004E2255246624772444165506660677065D
:1007F00079F0E02FF0E0EE0FFF1FE85AFE4F2B2DAF
:1008000030E0318320831A2511700F5FB12CDDCFCA
:10081000B394B695A79597958795D7CF0093570131
:1008200060E171E081EF91E00E948808209157011A
:10083000C114D104E104F10431F1812F90E0A0E072
:10084000B0E0B701A6014170552766277727481702
:1008500059076A077B0789F0E22FF0E0EE0FFF1FD0
:10086000E85AFE4F8B2D90E0918380832F5F81E0CB
:10087000111180E0182FB12CDBCFB394F694E794DC
:10088000D794C794D5CF2093570130E0E8E5F1E045
:1008900080E090E0A8E1821793075CF460817181A9
:1008A000A69FA001A79F500D11244193519301963B
:1008B000F2CF2A960FB6F894DEBF0FBECDBFDF9100
:1008C000CF911F910F91FF90EF90DF90CF90BF904D
:1008D000AF909F908F907F906F905F904F90089512
:1008E00060E08EE00E94C70661E08EE00E94000793
:1008F00061E08FE00E94C70660E08FE00E94000781
:1009000040E855E260E070E081EF91E00E941C0851
:100910008EE00E943607892B89F088EC90E0A0E0F9
:10092000B0E08093500190935101A0935201B09395
:1009300053016CE375EF82E190E010C088EE93E024
:10094000A0E0B0E08093500190935101A093520138
:10095000B093530162E772ED87E890E00E94F902DC
:1009600061E081E10C94C7066FE271E080ED91E0F7
:100970000C94AB0D80ED91E00C943D0DCF92DF9285
:10098000EF92FF920F931F93CF93DF9300D000D08D
:1009900000D0CDB7DEB781EF91E00E94890718162D
:1009A00019060CF05DC061EF71E0CE0101960E9466
:1009B0007D09BE016F5F7F4F80ED91E00E94C10D08
:1009C000CE0101960E943D0D66E171E080ED91E05F
:1009D0000E942F0E8823A1F060E470E080E090E098
:1009E0000E94D901AB01BC012AE030E081EF91E027
:1009F0000E943D096FE271E080ED91E00E94D80D08
:100A00008091D4019091D501089750F147E050E0D2
:100A100060E070E080ED91E00E944E0E80ED91E08C
:100A20000E947C0EAB01BC0180E490E00E94AC010E
:100A300088EB9BE00E94290660E470E080E090E093
:100A40000E94D901AB01BC012AE030E081EF91E0C6
:100A50000E943D096FE271E080ED91E00E94D80DA7
:100A600026E230E049E050E066ED71E086E591E095
:100A70000E94A0020E94D20500914C0110914D01EC
:100A800020914E0130914F016B017C01C01AD10AB7
:100A9000E20AF30A00915001109151012091520194
:100AA00030915301C016D106E206F306F0F06093D0
:100AB0004C0170934D0180934E0190934F018091B2
:100AC000540190915501892B39F481E090E0909385
:100AD00055018093540104C01092550110925401A5
:100AE0006091540181E10E94000788E097E00E9434
:100AF000290626960FB6F894DEBF0FBECDBFDF9154
:100B0000CF911F910F91FF90EF90DF90CF900895BC
:100B10001F920F920FB60F9211242F933F938F9332
:100B20009F93AF93BF938091E9019091EA01A091C7
:100B3000EB01B091EC013091E80123E0230F2D3758
:100B400020F40196A11DB11D05C026E8230F0296D1
:100B5000A11DB11D2093E8018093E9019093EA0162
:100B6000A093EB01B093EC018091ED019091EE0127
:100B7000A091EF01B091F0010196A11DB11D8093EC
:100B8000ED019093EE01A093EF01B093F001BF91BE
:100B9000AF919F918F913F912F910F900FBE0F902A
:100BA0001F9018952FB7F8946091E9017091EA01B0
:100BB0008091EB019091EC012FBF08953FB7F8941D
:100BC0008091ED019091EE01A091EF01B091F001C3
:100BD00026B5A89B05C02F3F19F00196A11DB11D98
:100BE0003FBF6627782F892F9A2F620F711D811DB5
:100BF000911D42E0660F771F881F991F4A95D1F714
:100C00000895CF92DF92EF92FF92CF93DF936B0123
:100C10007C010E94DE05EB01C114D104E104F10462
:100C200089F00E949B0E0E94DE056C1B7D0B683EC6
:100C3000734090F381E0C81AD108E108F108C85167
:100C4000DC4FEACFDF91CF91FF90EF90DF90CF9014
:100C500008958230910538F0880F991F880F991FE9
:100C600005970197F1F70895789484B5826084BD63
:100C700084B5816084BD85B5826085BD85B58160A0
:100C800085BDEEE6F0E0808181608083E1E8F0E000
:100C90001082808182608083808181608083E0E82F
:100CA000F0E0808181608083E1E9F0E08081826012
:100CB0008083808181608083E0E9F0E080818160D1
:100CC0008083E1ECF0E080818460808380818260B9
:100CD0008083808181608083E3ECF0E080818160AB
:100CE0008083E0ECF0E0808182608083E2ECF0E0E1
:100CF000808181608083EAE7F0E080818460808386
:100D0000808182608083808181608083808180682F
:100D10008083089590E0FC013197EF30F105B0F544
:100D2000EA5AFF4F0C943410809180008F7703C0F3
:100D3000809180008F7D8093800008958091800055
:100D4000877FF9CF84B58F7702C084B58F7D84BD4E
:100D50000895809190008F7707C0809190008F7DDB
:100D600003C080919000877F8093900008958091C8
:100D7000C0008F7703C08091C0008F7D8093C0003A
:100D800008958091C200877F8093C2000895CF9319
:100D9000DF9390E0FC01E851FF4F2491FC01EA5FF2
:100DA000FE4F8491882349F190E0880F991FFC0140
:100DB000E05CFE4FA591B4918E5C9E4FFC01C59105
:100DC000D4919FB7611108C0F8948C91209582232B
:100DD0008C93888182230AC0623051F4F8948C91FC
:100DE000322F309583238C938881822B888304C093
:100DF000F8948C91822B8C939FBFDF91CF910895B3
:100E00000F931F93CF93DF931F92CDB7DEB7282F99
:100E100030E0F901E653FF4F8491F901E851FF4FAB
:100E20001491F901EA5FFE4F04910023C9F0882371
:100E300021F069830E948A066981E02FF0E0EE0FBD
:100E4000FF1FEE5CFE4FA591B4919FB7F8948C9173
:100E5000611103C01095812301C0812B8C939FBF2A
:100E60000F90DF91CF911F910F910895CF93DF9352
:100E7000282F30E0F901E653FF4F8491F901E85142
:100E8000FF4FD491F901EA5FFE4FC491CC2391F05A
:100E900081110E948A06EC2FF0E0EE0FFF1FEC5D3F
:100EA000FE4FA591B4912C912D2381E090E021F487
:100EB00080E002C080E090E0DF91CF910895CF9371
:100EC000DF931F92CDB7DEB76983DC01ED91FC9112
:100ED0000280F381E02D41E050E0BE016F5F7F4F63
:100EE00009950F90DF91CF910895CF93DF93EC0197
:100EF0008C859D8597FF05C082E00E94680A9D87CA
:100F00008C878C859D85DF91CF91089583E00C942B
:100F1000BD0CFC018485958597FD06C082E00E948A
:100F2000100A90E00196089582E00E94100A90E075
:100F30000895FC018485958597FD05C02FEF3FEF4F
:100F400035872487089582E00C94680ACF93DF9355
:100F5000EC0180910D01882331F083E00E94990A11
:100F60001816190634F081E090E09B838A8380E0B4
:100F700090E0DF91CF910895FC0120812E5F2083C6
:100F800042E450E06EE471E080E80C94340BFC0124
:100F900081819081913A59F4813209F03CC047E057
:100FA00050E066E071E080E00E94340B43C0913273
:100FB00091F5803239F467E070E086E091E00E94BC
:100FC000650B06C0823209F035C0828180930D0125
:100FD0008091060190910701A0910801B09109014B
:100FE000803B9440A105B105C1F480910D0180FDC5
:100FF00014C087E797E790930108809300082BE0DF
:1010000088E190E00FB6F894A895809360000FBE39
:10101000209360000FC080E0089588E10FB6F89437
:1010200080936000109260000FBEA8951092010896
:101030001092000881E008952FEF3FEFFC01358703
:10104000248708951092F4011092F30188EE93E042
:10105000A0E0B0E08093F5019093F601A093F70132
:10106000B093F80181E291E09093F2018093F10155
:101070008FEF9FEF9093FE018093FD010895CF9233
:10108000DF92EF92FF920F931F93CF93DF936C0148
:101090007A01EB01E60EF71E00E010E0CE15DF0549
:1010A00061F06991D601ED91FC910190F081E02D04
:1010B000C6010995080F191FF1CFC801DF91CF9123
:1010C0001F910F91FF90EF90DF90CF9008956115E1
:1010D000710581F0DB010D900020E9F7AD01415071
:1010E0005109461B570BDC01ED91FC910280F38105
:1010F000E02D099480E090E00895DC01ED91FC91F1
:101100000190F081E02D09946DE271E00C94670884
:101110000F931F93CF93DF93EC010E9467088C011C
:10112000CE010E948408800F911FDF91CF911F9103
:101130000F9108958F929F92AF92BF92CF92DF92BC
:10114000EF92FF920F931F93CF93DF93CDB7DEB74C
:10115000A1970FB6F894DEBF0FBECDBF7C01C42EA1
:10116000E52FCB01D22E19A221E02D1510F02AE097
:10117000D22E8E010F5D1F4F8D2C912CA12CB12CE6
:101180006C2D7E2FA50194010E94F30F8C2DD29E11
:1011900080191124015011098A3014F4805D01C0B6
:1011A000895CF8018083211531054105510521F045
:1011B000C22EE32FCA01E4CFB801C7010E9467081D
:1011C000A1960FB6F894DEBF0FBECDBFDF91CF91D1
:1011D0001F910F91FF90EF90DF90CF90BF90AF9055
:1011E0009F908F900895CF92DF92EF92FF920F938E
:1011F0001F93CF93DF93EC016A017B012115310529
:1012000079F4E881F9810190F081E02D642FDF917C
:10121000CF911F910F91FF90EF90DF90CF900994A5
:101220002A303105E9F477FF1AC06DE20E947D088B
:101230008C0144275527BA014C195D096E097F09B5
:101240002AE0CE010E949A08800F911FDF91CF9172
:101250001F910F91FF90EF90DF90CF9008952AE0BB
:10126000B701A601CE01DF91CF911F910F91FF90A1
:10127000EF90DF90CF900C949A080F931F93CF9329
:10128000DF93EC010E94F3088C01CE010E948408D8
:10129000800F911FDF91CF911F910F9108950F93B0
:1012A0001F93CF93DF93EC010E94D2056887798763
:1012B0008A879B87E881F9810680F781E02DCE013E
:1012C000099597FF15C00E94D205088519852A85C2
:1012D0003B85601B710B820B930B0C811D812E8152
:1012E0003F81601771078207930720F38FEF9FEF0D
:1012F000DF91CF911F910F9108950F931F93CF937B
:10130000DF93EC018B016FE271E00E94AB0DC8012D
:101310000E944F0997FD05C0682FCE010E941C0E48
:10132000F6CFCE01DF91CF911F910F91089540919B
:1013300045025091460220914302309144024217E7
:101340005307B4F49091E8009570E1F39091E800B0
:1013500092FD19C08093F100809145029091460260
:1013600001968F739927892B19F48EEF8093E800EB
:101370008091450290914602019690934602809397
:10138000450281E0089580E00895CF92DF92FF92B8
:101390000F931F93CF93DF931F92CDB7DEB7082F24
:1013A000162F862F880F8E5F99830E94970983E0FE
:1013B0000E949709F02EC02E9981D92E8C2D8F195D
:1013C000811778F4F60184910E949709082F80E034
:1013D0000E9497098023FFEFCF1ADF0A8111EECF19
:1013E00001C081E00F90DF91CF911F910F91FF908D
:1013F000DF90CF900895615030F02091F100FC0112
:1014000020830196F8CF289A84E6809348020895B5
:101410002FB7FC012083F89467706093E90008956A
:10142000CF93DF931F92CDB7DEB7682FCE01019621
:101430000E94080A8091F20099819FBF0F90DF916E
:10144000CF910895FF920F931F93CF93DF9300D016
:10145000CDB7DEB7F62E8A0190914702992311F09D
:1014600057FF03C08FEF9FEF2BC0682FCE0101966F
:101470007A830E94080A8091F20090E0A8017A81A4
:10148000801791070CF4AC01EF2DF72FF40E84E6D2
:10149000FE1639F0289A809348029091F1009193BA
:1014A000F7CF4115510521F08091F200882321F0FA
:1014B00089818FBFCA0104C08BE68093E800F8CF12
:1014C0000F900F90DF91CF911F910F91FF90089592
:1014D000CF93DF931F92CDB7DEB741E050E0BE015E
:1014E0006F5F7F4F0E94220A019719F4898190E073
:1014F00002C08FEF9FEF0F90DF91CF910895CF93B0
:10150000DF931F92CDB7DEB7682FCE0101960E9400
:10151000080A9091E800892F807295FF04C090918D
:10152000F20080E4891B99819FBF0F90DF91CF91DA
:1015300008956F927F928F929F92AF92BF92CF92B7
:10154000DF92EF92FF920F931F93CF93DF931F923F
:10155000CDB7DEB7782E7B01C42EB52E8091470221
:10156000882369F0042F152F8AEFD82E872D8072DB
:10157000982E9AE3A92E872D8074882E11C08FEFA4
:101580009FEF57C0872D0E947F0A682E81110CC0E3
:10159000DA94A9F361E070E080E090E00E94010637
:1015A0000115110579F73BC0282F30E0021713070A
:1015B0000CF4602E672DCE0101960E94080A8091DE
:1015C000E80085FF29C0262D30E0021B130B99206F
:1015D00039F06A948FEF6816B1F01092F100F9CFEC
:1015E000F701862D77FE07C0815058F094919093B3
:1015F000F1003196F9CF815020F091919093F10054
:10160000FACFE20EF31E8091E80085FF0FC00115AE
:10161000110511F481100AC089818FBFC1CF5D9A75
:1016200084E6809349028C2D9B2D03C0A092E80094
:10163000F3CF0F90DF91CF911F910F91FF90EF901B
:10164000DF90CF90BF90AF909F908F907F906F90E2
:1016500008951092E900109246021092450290936C
:101660004402809343020895CF92DF92FF920F933A
:101670001F93CF93DF9300D0CDB7DEB7F82E8A014A
:101680006B0101151105B1F0F601F7FE02C084915E
:1016900001C0808149835A830E9497090150110932
:1016A000FFEFCF1ADF0A49815A818111EACF8FEF0C
:1016B0009FEF01C0CA010F900F90DF91CF911F9152
:1016C0000F91FF90DF90CF9008951F93CF93DF93FA
:1016D0001F92CDB7DEB7162F2091E80022FFFCCF76
:1016E000612F79830E94FB098BEF8093E800812FA3
:1016F0007981972F0F90DF91CF911F910895CF930C
:10170000DF931F92CDB7DEB71982CE0101960E94FA
:10171000BC07CE0101960E94BA0E898190E00F901D
:10172000DF91CF9108951F920F920FB60F9211245F
:10173000EF92FF920F931F932F933F934F935F93DB
:101740006F937F938F939F93AF93BF93EF93FF9389
:10175000CF93DF93CDB7DEB76297DEBFCDBF1092D8
:10176000E9008091E80083FFEBC068E0CE010A96B3
:101770000E94FB0982EF8093E8009A8597FF05C0DD
:101780008091E80080FFFCCF03C08EEF8093E800DB
:10179000892F807609F0B9C08B85811105C0109220
:1017A000F1001092F100C5C0282F2D7F213009F4DF
:1017B000C0C0853049F48091E80080FFFCCF8C8563
:1017C00080688093E300B5C0863009F076C02D852F
:1017D000E888F988223071F580E090E02A8B0E9439
:1017E000290B0E947F0B99E08E010F5F1F4FF801BC
:1017F000392F11923A95E9F799832A892A8391E042
:101800009E8390E898879AEF9987209145023091BE
:101810004602275F3F4F3C832B838D83C7010E9485
:10182000290B49E050E0B80180E00E94340B0E948F
:101830007F0B7FC0C7012A8B0E94290B2A89223285
:1018400041F482E290E00E94C50E892B09F071C03C
:1018500074C0213069F488899989089711F420931C
:10186000420280914202811118C067EA71E01AC0F9
:10187000233009F062C08C85882391F0823021F4F6
:101880006DE085EC91E006C0813009F056C06BE058
:1018900089EB91E00E94C5094AC065E971E002C088
:1018A00063ED71E06115710509F447C0FB014491D6
:1018B00050E080E80E94340B3CC0873009F43DC002
:1018C000883021F481E08093F10033C0893089F5BC
:1018D000937099F5E1E9F1E081E021E096E38093EE
:1018E000E9002093EB0034913093EC009093ED00ED
:1018F0008F5F3196853099F78EE78093EA001092DA
:10190000EA008C858093470214C0888999890E94D7
:10191000290B8E85811105C0CE010A960E94C7074A
:1019200006C0823051F4CE010A960E94ED0E882343
:1019300021F08EEF8093E80003C081E28093EB00FA
:1019400062960FB6F894DEBF0FBECDBFDF91CF9188
:10195000FF91EF91BF91AF919F918F917F916F9187
:101960005F914F913F912F911F910F91FF90EF90B9
:101970000F900FBE0F901F9018958093E9008091F3
:10198000F200882319F08AE38093E80008951F92FB
:101990000F920FB60F9211242F933F934F935F93A3
:1019A0006F937F938F939F93AF93BF93EF93FF9327
:1019B0008091E1001092E10083FF0FC01092E900D6
:1019C00091E09093EB001092EC0092E39093ED0085
:1019D0001092470298E09093F00082FF1DC083E0D0
:1019E0000E94BD0C80914902882339F08091490200
:1019F000815080934902882369F0809148028823AE
:101A000059F080914802815080934802811104C0AE
:101A1000289802C05D98F1CFFF91EF91BF91AF91EF
:101A20009F918F917F916F915F914F913F912F91F6
:101A30000F900FBE0F901F9018951092470281E0F3
:101A40008093D70080EA8093D80082E189BD09B4F1
:101A500000FEFDCF61E070E080E090E00E940106B2
:101A600080E98093D8008CE08093E2001092E0003F
:101A7000559A209A5D9828980895FC01808191815B
:101A80000C94D210CF93DF93EC0188819981009759
:101A900011F00E94D210198218821D821C821B82B2
:101AA0001A82DF91CF9108950F931F93CF93DF9305
:101AB000EC018B016F5F7F4F888199810E946111DA
:101AC000009731F0998388831B830A8381E001C0EA
:101AD00080E0DF91CF911F910F910895CF93DF9315
:101AE000EC0188819981892B29F08A819B81861755
:101AF000970760F4CE010E94540D882341F08C8139
:101B00009D81892B19F4E881F981108281E0DF91B0
:101B1000CF910895EF92FF920F931F93CF93DF938E
:101B2000EC017B018A01BA010E946E0D811104C093
:101B3000CE010E94420D07C01D830C83B70188812E
:101B400099810E946412CE01DF91CF911F910F9174
:101B5000FF90EF900895FC0111821082138212828F
:101B6000158214826115710559F0FB010190002066
:101B7000E9F7AF0141505109461B570B0C948A0DF0
:101B80000895CF93DF93EC01FB018617970761F06F
:101B9000608171816115710529F0448155810E9430
:101BA0008A0D02C00E94420DCE01DF91CF910895AF
:101BB000CF93DF93EC016115710561F0FB0101909A
:101BC0000020E9F7AF0141505109461B570B0E9415
:101BD0008A0D02C00E94420DCE01DF91CF9108957F
:101BE000EF92FF920F931F93CF93DF93EC017B0152
:101BF0000C811D816115710511F480E016C041153D
:101C0000510591F0040F151FB8010E946E0D882335
:101C1000A1F3288139818C819D81B701820F931FA7
:101C20000E9464121D830C8381E0DF91CF911F918C
:101C30000F91FF90EF900895CF93DF9300D0CDB731
:101C4000DEB769831A8241E050E0BE016F5F7F4FCB
:101C50000E94F00D0F900F90DF91CF910895FC013D
:101C600024813581232B31F421E061157105A1F028
:101C7000FB0108C0FC01808191816115710531F47F
:101C800021E0FC018081882339F005C00E945B12AD
:101C900021E0892B09F020E0822F0895CF93DF9374
:101CA000EC01CB012C813D816217730710F54115C2
:101CB0005105F9F0B901681B790B4617570708F46D
:101CC000BA01E881F981261B370B3D832C83A901DA
:101CD000481B590B680F791F6E0F7F1F8E0F9F1FB8
:101CE0000E946B12E881F9818C819D81E80FF91FB8
:101CF0001082DF91CF910895FC018081918100973E
:101D000011F00C942B1260E070E0CB01089508955F
:101D10000E9434060E94870E81E492E00E941D0D0D
:101D20000E947004C0E0D0E00E94BE042097E1F35E
:101D30000E940000F9CF0895FF920F931F93CF9355
:101D4000DF93EC01F62EE881F9810480F581E02D26
:101D500009958C01E881F9810680F781E02D6F2DCE
:101D6000CE010995C8019927DF91CF911F910F915D
:101D7000FF900895FC0120812F5F208349E150E00E
:101D800067E572E080E80C94340B45E650E060E7CC
:101D900072E080E80C94340BEF92FF920F931F9344
:101DA000CF93DF931F92CDB7DEB789838B017A0182
:101DB00041E050E0BE016F5F7F4F84E00E94990ACE
:101DC000A701B80184E40E94990A0F90DF91CF9196
:101DD0001F910F91FF90EF900895FC0191818081F8
:101DE000813A31F481E0913091F0933089F411C05F
:101DF000813271F49B3021F4828180930F0105C000
:101E00009A3031F4828180930E0181E00895089523
:101E100080E0089548E050E082E00C94CC0ECF932F
:101E2000DF93DC01683818F0E8E7E60F25C0E62FFD
:101E3000F0E067FF11C0E058F10981E090E001C0D7
:101E4000880FEA95EAF714969C911497982B1496AC
:101E50009C931497E0E010C0E952FE4FE491EE230A
:101E600009F440C0E7FF08C014968C911497826073
:101E700014968C931497EF7716968C9116978E176D
:101E800041F117968C9117978E1719F118968C912E
:101E900018978E17F1F019968C9119978E17C9F033
:101EA0001A968C911A978E17A1F01B968C911B97FE
:101EB0008E1779F080E090E0ED01C80FD91F2E81D8
:101EC000211102C0EE8305C0019686309105A1F76D
:101ED00009C0BD016C5F7F4FCD010E940A0F81E0F8
:101EE00090E008C081E090E013969C938E93129747
:101EF00080E090E0DF91CF910895683818F0E8E72E
:101F0000E60F25C0E62FF0E067FF12C0E058F109A8
:101F100021E030E001C0220FEA95EAF72095DC01CC
:101F200014963C911497322314963C93E0E00FC032
:101F3000E952FE4FE491EE2329F1E7FF08C0DC01EE
:101F400014962C9114972D7F14962C93EF7720E004
:101F500030E0EE2351F0DC01A20FB31F16964C9136
:101F600016974E1302C016961C922F5F3F4F2630D5
:101F7000310579F7BC016C5F7F4F0E940A0F81E049
:101F800090E0089580E090E00895FC0116821782A9
:101F900010861186128613861482BC016C5F7F4FF7
:101FA0000C940A0F1092560210924D0210924C029D
:101FB00082E491E090934B0280934A020895AA1B19
:101FC000BB1B51E107C0AA1FBB1FA617B70710F024
:101FD000A61BB70B881F991F5A95A9F78095909556
:101FE000BC01CD010895A1E21A2EAA1BBB1BFD0165
:101FF0000DC0AA1FBB1FEE1FFF1FA217B307E407E8
:10200000F50720F0A21BB30BE40BF50B661F771F3F
:10201000881F991F1A9469F760957095809590951F
:102020009B01AC01BD01CF010895052E97FB1EF465
:1020300000940E942C1057FD07D00E94F30F07FC5C
:1020400003D04EF40C942C1050954095309521956A
:102050003F4F4F4F5F4F08959095809570956195D4
:102060007F4F8F4F9F4F0895EE0FFF1F0590F49104
:10207000E02D0994CF93DF938230910510F482E034
:1020800090E0E0915902F0915A0220E030E0A0E0A7
:10209000B0E0309739F14081518148175907B8F0C5
:1020A0004817590771F482819381109729F013968C
:1020B0009C938E9312972CC090935A02809359024E
:1020C00027C02115310531F04217530718F0A90137
:1020D000DB0101C0EF019A01BD01DF010280F38144
:1020E000E02DD7CF21153105F9F0281B390B24300D
:1020F000310580F48A819B816115710521F0FB0116
:102100009383828304C090935A0280935902FE0104
:10211000329644C0FE01E20FF31F81939193225047
:102120003109398328833AC02091570230915802EF
:10213000232B41F420910201309103013093580286
:1021400020935702209100013091010121153105A2
:1021500041F42DB73EB74091040150910501241B75
:10216000350BE0915702F0915802E217F307A0F403
:102170002E1B3F0B2817390778F0AC014E5F5F4FDD
:102180002417350748F04E0F5F1F509358024093B5
:1021900057028193919302C0E0E0F0E0CF01DF911C
:1021A000CF910895CF93DF93009709F487C0FC0186
:1021B000329713821282C0915902D0915A0220970D
:1021C00081F420813181280F391F8091570290912D
:1021D00058028217930779F5F0935802E09357025B
:1021E0006DC0DE0120E030E0AE17BF0750F412965C
:1021F0004D915C9113979D014115510509F1DA014B
:10220000F3CFB383A28340815181840F951F8A1736
:102210009B0771F48D919C911197840F951F0296E5
:102220009183808312968D919C91139793838283DF
:102230002115310529F4F0935A02E09359023EC06A
:10224000D9011396FC93EE9312974D915D91A40FD3
:10225000B51FEA17FB0779F480819181840F951FE0
:102260000296D90111969C938E9382819381139645
:102270009C938E931297E0E0F0E08A819B81009717
:1022800019F0FE01EC01F9CFCE01029628813981C7
:10229000820F931F20915702309158022817390757
:1022A00069F4309729F410925A021092590202C030
:1022B00013821282D0935802C0935702DF91CF91BC
:1022C0000895A0E0B0E0E7E6F1E10C949312EC0190
:1022D000CB01209719F40E943A10B8C0FE01E60F16
:1022E000F71F9E0122503109E217F30708F4ACC032
:1022F000D9010D911C91119706171707B8F00530F9
:10230000110508F49FC0A80144505109461757070A
:1023100008F498C002501109061B170B0193119382
:102320006D937C93CF010E94D2108CC05B01A01AE8
:10233000B10A4E01800E911EA0915902B0915A022D
:10234000612C712C60E070E0109709F449C0A81569
:10235000B905C9F5ED90FC901197670142E0C40EF4
:10236000D11CCA14DB0478F147018A189B08640168
:1023700042E0C40ED11C1296BC9012971396AC91F9
:10238000B5E0CB16D10440F0B282A3839182808263
:10239000D9018D939C9309C00E5F1F4F0E0D1F1D19
:1023A000F90111830083EB2DFA2F6115710531F0CE
:1023B000DB011396FC93EE93129744C0F0935A02FC
:1023C000E09359023FC06D917C9111976616770694
:1023D00008F43B01BD0112960D90BC91A02DB4CF25
:1023E000609157027091580268157905E9F46816F2
:1023F0007906D0F440910001509101014115510539
:1024000041F44DB75EB76091040170910501461B20
:10241000570BE417F507C0F4F0935802E093570206
:10242000F901918380830EC00E943A107C010097CD
:1024300059F0A801BE010E945212CE010E94D21092
:10244000C70104C0CE0102C080E090E0CDB7DEB786
:10245000EEE00C94AF121F93FC0199278827BC0172
:10246000E89411911032E9F3193010F01E30C8F3DE
:102470001B3251F01D3249F4689406C00E947A1252
:10248000610F711D811D911D119110531A30B0F310
:102490003EF490958095709561957F4F8F4F9F4F3B
:1024A0001F910895FB01DC0102C001900D92415083
:1024B0005040D8F70895FB01DC018D9101908019FF
:1024C0000110D9F3990B0895FB01DC0101900D92E5
:1024D0000020E1F70895FB01DC014150504048F035
:1024E00001900D920020C9F701C01D92415050404B
:1024F000E0F70895592F482F372F262F660F771FA3
:10250000881F991F660F771F881F991F620F731FFF
:10251000841F951F660F771F881F991F08952F929C
:102520003F924F925F926F927F928F929F92AF9263
:10253000BF92CF92DF92EF92FF920F931F93CF93B0
:10254000DF93CDB7DEB7CA1BDB0B0FB6F894DEBF47
:102550000FBECDBF09942A88398848885F846E846D
:102560007D848C849B84AA84B984C884DF80EE80B7
:10257000FD800C811B81AA81B981CE0FD11D0FB6C0
:10258000F894DEBF0FBECDBFED01089512E0CCED93
:10259000D2E004C0FE010E9436102296CE3DD10743
:0625A000C9F7F894FFCF1B
:1025A60000005B02800000E1000000000000010165
:1025B6002D2D2D2D2D00726561644944000000000B
:1025C600005F07A60789079907750786070D0A00A2
:1025D6006E616E00696E66006F7666002E00000002
:0C25E60000009C0E3F080F0F7D0FC50F7A
:00000001FF
